{"abi":[{"type":"function","name":"dotProduct","inputs":[{"name":"a","type":"uint256[]","internalType":"uint256[]"},{"name":"b","type":"uint256[]","internalType":"uint256[]"}],"outputs":[{"name":"result","type":"uint256","internalType":"uint256"}],"stateMutability":"pure"}],"bytecode":{"object":"0x6080604052348015600e575f5ffd5b506103c18061001c5f395ff3fe608060405234801561000f575f5ffd5b5060043610610029575f3560e01c8063afe036791461002d575b5f5ffd5b61004760048036038101906100429190610275565b61005d565b60405161005491906102fa565b60405180910390f35b5f81518351146100a2576040517f08c379a00000000000000000000000000000000000000000000000000000000081526004016100999061036d565b60405180910390fd5b5f5f5b84518110156100d65760208102602086010151602082026020860101518082028401935050506001810190506100a5565b508091505092915050565b5f604051905090565b5f5ffd5b5f5ffd5b5f5ffd5b5f601f19601f8301169050919050565b7f4e487b71000000000000000000000000000000000000000000000000000000005f52604160045260245ffd5b61013c826100f6565b810181811067ffffffffffffffff8211171561015b5761015a610106565b5b80604052505050565b5f61016d6100e1565b90506101798282610133565b919050565b5f67ffffffffffffffff82111561019857610197610106565b5b602082029050602081019050919050565b5f5ffd5b5f819050919050565b6101bf816101ad565b81146101c9575f5ffd5b50565b5f813590506101da816101b6565b92915050565b5f6101f26101ed8461017e565b610164565b90508083825260208201905060208402830185811115610215576102146101a9565b5b835b8181101561023e578061022a88826101cc565b845260208401935050602081019050610217565b5050509392505050565b5f82601f83011261025c5761025b6100f2565b5b813561026c8482602086016101e0565b91505092915050565b5f5f6040838503121561028b5761028a6100ea565b5b5f83013567ffffffffffffffff8111156102a8576102a76100ee565b5b6102b485828601610248565b925050602083013567ffffffffffffffff8111156102d5576102d46100ee565b5b6102e185828601610248565b9150509250929050565b6102f4816101ad565b82525050565b5f60208201905061030d5f8301846102eb565b92915050565b5f82825260208201905092915050565b7f417272617973206d75737420686176652073616d65206c656e677468000000005f82015250565b5f610357601c83610313565b915061036282610323565b602082019050919050565b5f6020820190508181035f8301526103848161034b565b905091905056fea26469706673582212209216b3ac703cf9aca45dabf84334fb634d1d199bc2ddefacf9a75f4afeda731864736f6c634300081c0033","linkReferences":{}},"methodIdentifiers":{"dotProduct(uint256[],uint256[])":"afe03679"},"id":21}